{
  "_format": "hh-sol-artifact-1",
  "contractName": "ExecutionOrdersEngineMoonbeam",
  "sourceName": "contracts/Moonbeam/Moonbeam/ExecutionOrdersEngineMoonbeam.sol",
  "abi": [
    {
      "inputs": [],
      "stateMutability": "nonpayable",
      "type": "constructor"
    },
    {
      "inputs": [
        {
          "internalType": "uint256",
          "name": "",
          "type": "uint256"
        }
      ],
      "name": "Orders",
      "outputs": [
        {
          "internalType": "uint256",
          "name": "engine_nonce",
          "type": "uint256"
        },
        {
          "internalType": "uint256",
          "name": "origin_nonce",
          "type": "uint256"
        },
        {
          "internalType": "address",
          "name": "owner",
          "type": "address"
        },
        {
          "internalType": "address",
          "name": "tokenIn",
          "type": "address"
        },
        {
          "internalType": "address",
          "name": "tokenOut",
          "type": "address"
        },
        {
          "internalType": "uint256",
          "name": "limit_price",
          "type": "uint256"
        },
        {
          "internalType": "uint256",
          "name": "stop_price",
          "type": "uint256"
        },
        {
          "internalType": "uint256",
          "name": "size",
          "type": "uint256"
        },
        {
          "internalType": "uint256",
          "name": "block_submitted",
          "type": "uint256"
        },
        {
          "internalType": "uint256",
          "name": "order_type",
          "type": "uint256"
        },
        {
          "internalType": "uint256",
          "name": "positionAr",
          "type": "uint256"
        }
      ],
      "stateMutability": "view",
      "type": "function"
    },
    {
      "inputs": [],
      "name": "USDC",
      "outputs": [
        {
          "internalType": "contract IERC20",
          "name": "",
          "type": "address"
        }
      ],
      "stateMutability": "view",
      "type": "function"
    },
    {
      "inputs": [],
      "name": "USDC_address",
      "outputs": [
        {
          "internalType": "address",
          "name": "",
          "type": "address"
        }
      ],
      "stateMutability": "view",
      "type": "function"
    },
    {
      "inputs": [],
      "name": "WGLMR_address",
      "outputs": [
        {
          "internalType": "address",
          "name": "",
          "type": "address"
        }
      ],
      "stateMutability": "view",
      "type": "function"
    },
    {
      "inputs": [
        {
          "internalType": "uint256",
          "name": "_nonce",
          "type": "uint256"
        },
        {
          "internalType": "address",
          "name": "_owner",
          "type": "address"
        },
        {
          "internalType": "address",
          "name": "tokenIn",
          "type": "address"
        },
        {
          "internalType": "address",
          "name": "tokenOut",
          "type": "address"
        },
        {
          "internalType": "uint256",
          "name": "limit_price",
          "type": "uint256"
        },
        {
          "internalType": "uint256",
          "name": "stop_price",
          "type": "uint256"
        },
        {
          "internalType": "uint256",
          "name": "size",
          "type": "uint256"
        },
        {
          "internalType": "uint256",
          "name": "block_submitted",
          "type": "uint256"
        },
        {
          "internalType": "uint256",
          "name": "order_type",
          "type": "uint256"
        }
      ],
      "name": "addTo_Orders",
      "outputs": [],
      "stateMutability": "nonpayable",
      "type": "function"
    },
    {
      "inputs": [],
      "name": "admin",
      "outputs": [
        {
          "internalType": "address",
          "name": "",
          "type": "address"
        }
      ],
      "stateMutability": "view",
      "type": "function"
    },
    {
      "inputs": [
        {
          "internalType": "uint256",
          "name": "order_nonce",
          "type": "uint256"
        }
      ],
      "name": "delete_Order",
      "outputs": [],
      "stateMutability": "nonpayable",
      "type": "function"
    },
    {
      "inputs": [],
      "name": "dex",
      "outputs": [
        {
          "internalType": "contract IStellaSwap",
          "name": "",
          "type": "address"
        }
      ],
      "stateMutability": "view",
      "type": "function"
    },
    {
      "inputs": [],
      "name": "engine_nonce",
      "outputs": [
        {
          "internalType": "uint256",
          "name": "",
          "type": "uint256"
        }
      ],
      "stateMutability": "view",
      "type": "function"
    },
    {
      "inputs": [
        {
          "internalType": "uint256",
          "name": "orderNonce",
          "type": "uint256"
        }
      ],
      "name": "executeOrder_Moonbeam",
      "outputs": [],
      "stateMutability": "nonpayable",
      "type": "function"
    },
    {
      "inputs": [],
      "name": "getOurTokensOut",
      "outputs": [],
      "stateMutability": "nonpayable",
      "type": "function"
    },
    {
      "inputs": [],
      "name": "get_pendingOrders_MOONBEAM",
      "outputs": [
        {
          "internalType": "uint256[]",
          "name": "",
          "type": "uint256[]"
        }
      ],
      "stateMutability": "view",
      "type": "function"
    },
    {
      "inputs": [
        {
          "internalType": "uint256",
          "name": "",
          "type": "uint256"
        }
      ],
      "name": "pendingOrders_MOONBEAM",
      "outputs": [
        {
          "internalType": "uint256",
          "name": "",
          "type": "uint256"
        }
      ],
      "stateMutability": "view",
      "type": "function"
    },
    {
      "inputs": [
        {
          "internalType": "address",
          "name": "_stellaSwapAddress",
          "type": "address"
        }
      ],
      "name": "set_StellaSwap",
      "outputs": [],
      "stateMutability": "nonpayable",
      "type": "function"
    },
    {
      "inputs": [],
      "name": "stellaSwapAddress",
      "outputs": [
        {
          "internalType": "address",
          "name": "",
          "type": "address"
        }
      ],
      "stateMutability": "view",
      "type": "function"
    },
    {
      "inputs": [],
      "name": "xcASTR_address",
      "outputs": [
        {
          "internalType": "address",
          "name": "",
          "type": "address"
        }
      ],
      "stateMutability": "view",
      "type": "function"
    },
    {
      "inputs": [],
      "name": "xcDOT_address",
      "outputs": [
        {
          "internalType": "address",
          "name": "",
          "type": "address"
        }
      ],
      "stateMutability": "view",
      "type": "function"
    }
  ],
  "bytecode": "0x6080604052600060015534801561001557600080fd5b50336000806101000a81548173ffffffffffffffffffffffffffffffffffffffff021916908373ffffffffffffffffffffffffffffffffffffffff16021790555073931715fee2d06333043d11f658c8ce934ac61d0c600460006101000a81548173ffffffffffffffffffffffffffffffffffffffff021916908373ffffffffffffffffffffffffffffffffffffffff1602179055506128fd806100ba6000396000f3fe608060405234801561001057600080fd5b506004361061010b5760003560e01c80638fb326f2116100a2578063d6905c8e11610071578063d6905c8e1461028e578063df7c8a5c146102aa578063f1e8d1e7146102c6578063f851a440146102e4578063f9abd26c146103025761010b565b80638fb326f2146101e857806398bf0ffb14610222578063a0fbf8fb14610240578063cc2db7ce146102705761010b565b8063692058c2116100de578063692058c2146101725780636bd0dc66146101905780636c2c5aac146101ac57806389a30271146101ca5761010b565b806306c96e8c146101105780633d8765c21461012e5780633f8e8c2714610138578063400e2f9414610156575b600080fd5b610118610320565b60405161012591906121fa565b60405180910390f35b610136610326565b005b6101406107a8565b60405161014d9190612256565b60405180910390f35b610170600480360381019061016b91906122a2565b6107c0565b005b61017a611a11565b604051610187919061232e565b60405180910390f35b6101aa60048036038101906101a59190612375565b611a37565b005b6101b4611abc565b6040516101c19190612460565b60405180910390f35b6101d2611b14565b6040516101df91906124a3565b60405180910390f35b61020260048036038101906101fd91906122a2565b611b3a565b6040516102199b9a999897969594939291906124be565b60405180910390f35b61022a611bf4565b6040516102379190612256565b60405180910390f35b61025a600480360381019061025591906122a2565b611c0c565b60405161026791906121fa565b60405180910390f35b610278611c30565b6040516102859190612256565b60405180910390f35b6102a860048036038101906102a39190612569565b611c48565b005b6102c460048036038101906102bf91906122a2565b611e72565b005b6102ce61217f565b6040516102db9190612256565b60405180910390f35b6102ec6121a5565b6040516102f99190612256565b60405180910390f35b61030a6121c9565b6040516103179190612256565b60405180910390f35b60015481565b73931715fee2d06333043d11f658c8ce934ac61d0c73ffffffffffffffffffffffffffffffffffffffff1663a9059cbb3373931715fee2d06333043d11f658c8ce934ac61d0c73ffffffffffffffffffffffffffffffffffffffff166370a08231306040518263ffffffff1660e01b81526004016103a49190612256565b602060405180830381865afa1580156103c1573d6000803e3d6000fd5b505050506040513d601f19601f820116820180604052508101906103e59190612648565b6040518363ffffffff1660e01b8152600401610402929190612675565b6020604051808303816000875af1158015610421573d6000803e3d6000fd5b505050506040513d601f19601f8201168201806040525081019061044591906126d6565b5073ffffffff1fcacbd218edc0eba20fc2308c77808073ffffffffffffffffffffffffffffffffffffffff1663a9059cbb3373ffffffff1fcacbd218edc0eba20fc2308c77808073ffffffffffffffffffffffffffffffffffffffff166370a08231306040518263ffffffff1660e01b81526004016104c49190612256565b602060405180830381865afa1580156104e1573d6000803e3d6000fd5b505050506040513d601f19601f820116820180604052508101906105059190612648565b6040518363ffffffff1660e01b8152600401610522929190612675565b6020604051808303816000875af1158015610541573d6000803e3d6000fd5b505050506040513d601f19601f8201168201806040525081019061056591906126d6565b5073acc15dc74880c9944775448304b263d191c6077f73ffffffffffffffffffffffffffffffffffffffff1663a9059cbb3373acc15dc74880c9944775448304b263d191c6077f73ffffffffffffffffffffffffffffffffffffffff166370a08231306040518263ffffffff1660e01b81526004016105e49190612256565b602060405180830381865afa158015610601573d6000803e3d6000fd5b505050506040513d601f19601f820116820180604052508101906106259190612648565b6040518363ffffffff1660e01b8152600401610642929190612675565b6020604051808303816000875af1158015610661573d6000803e3d6000fd5b505050506040513d601f19601f8201168201806040525081019061068591906126d6565b5073ffffffffa893ad19e540e172c10d78d4d479b5cf73ffffffffffffffffffffffffffffffffffffffff1663a9059cbb3373ffffffffa893ad19e540e172c10d78d4d479b5cf73ffffffffffffffffffffffffffffffffffffffff166370a08231306040518263ffffffff1660e01b81526004016107049190612256565b602060405180830381865afa158015610721573d6000803e3d6000fd5b505050506040513d601f19601f820116820180604052508101906107459190612648565b6040518363ffffffff1660e01b8152600401610762929190612675565b6020604051808303816000875af1158015610781573d6000803e3d6000fd5b505050506040513d601f19601f820116820180604052508101906107a591906126d6565b50565b73ffffffffa893ad19e540e172c10d78d4d479b5cf81565b6000600560008381526020019081526020016000206040518061016001604052908160008201548152602001600182015481526020016002820160009054906101000a900473ffffffffffffffffffffffffffffffffffffffff1673ffffffffffffffffffffffffffffffffffffffff1673ffffffffffffffffffffffffffffffffffffffff1681526020016003820160009054906101000a900473ffffffffffffffffffffffffffffffffffffffff1673ffffffffffffffffffffffffffffffffffffffff1673ffffffffffffffffffffffffffffffffffffffff1681526020016004820160009054906101000a900473ffffffffffffffffffffffffffffffffffffffff1673ffffffffffffffffffffffffffffffffffffffff1673ffffffffffffffffffffffffffffffffffffffff1681526020016005820154815260200160068201548152602001600782015481526020016008820154815260200160098201548152602001600a82015481525050905073931715fee2d06333043d11f658c8ce934ac61d0c73ffffffffffffffffffffffffffffffffffffffff16816060015173ffffffffffffffffffffffffffffffffffffffff160361106557600460009054906101000a900473ffffffffffffffffffffffffffffffffffffffff1673ffffffffffffffffffffffffffffffffffffffff166323b872dd8260400151308460e001516040518463ffffffff1660e01b81526004016109e793929190612703565b6020604051808303816000875af1158015610a06573d6000803e3d6000fd5b505050506040513d601f19601f82011682018060405250810190610a2a91906126d6565b50600460009054906101000a900473ffffffffffffffffffffffffffffffffffffffff1673ffffffffffffffffffffffffffffffffffffffff1663095ea7b3600260009054906101000a900473ffffffffffffffffffffffffffffffffffffffff168360e001516040518363ffffffff1660e01b8152600401610aae929190612675565b6020604051808303816000875af1158015610acd573d6000803e3d6000fd5b505050506040513d601f19601f82011682018060405250810190610af191906126d6565b5073acc15dc74880c9944775448304b263d191c6077f73ffffffffffffffffffffffffffffffffffffffff16816080015173ffffffffffffffffffffffffffffffffffffffff1603610cac576000600360009054906101000a900473ffffffffffffffffffffffffffffffffffffffff1673ffffffffffffffffffffffffffffffffffffffff1663ceb9201273931715fee2d06333043d11f658c8ce934ac61d0c73acc15dc74880c9944775448304b263d191c6077f8560e001516040518463ffffffff1660e01b8152600401610bca93929190612703565b6020604051808303816000875af1158015610be9573d6000803e3d6000fd5b505050506040513d601f19601f82011682018060405250810190610c0d9190612648565b905073acc15dc74880c9944775448304b263d191c6077f73ffffffffffffffffffffffffffffffffffffffff1663a9059cbb8360400151836040518363ffffffff1660e01b8152600401610c62929190612675565b6020604051808303816000875af1158015610c81573d6000803e3d6000fd5b505050506040513d601f19601f82011682018060405250810190610ca591906126d6565b5050611060565b73ffffffff1fcacbd218edc0eba20fc2308c77808073ffffffffffffffffffffffffffffffffffffffff16816080015173ffffffffffffffffffffffffffffffffffffffff1603610e7c576000600360009054906101000a900473ffffffffffffffffffffffffffffffffffffffff1673ffffffffffffffffffffffffffffffffffffffff16630ac3789c73931715fee2d06333043d11f658c8ce934ac61d0c73acc15dc74880c9944775448304b263d191c6077f73ffffffff1fcacbd218edc0eba20fc2308c7780808660e001516040518563ffffffff1660e01b8152600401610d9a949392919061273a565b6020604051808303816000875af1158015610db9573d6000803e3d6000fd5b505050506040513d601f19601f82011682018060405250810190610ddd9190612648565b905073ffffffff1fcacbd218edc0eba20fc2308c77808073ffffffffffffffffffffffffffffffffffffffff1663a9059cbb8360400151836040518363ffffffff1660e01b8152600401610e32929190612675565b6020604051808303816000875af1158015610e51573d6000803e3d6000fd5b505050506040513d601f19601f82011682018060405250810190610e7591906126d6565b505061105f565b73ffffffffa893ad19e540e172c10d78d4d479b5cf73ffffffffffffffffffffffffffffffffffffffff16816080015173ffffffffffffffffffffffffffffffffffffffff160361105e576000600360009054906101000a900473ffffffffffffffffffffffffffffffffffffffff1673ffffffffffffffffffffffffffffffffffffffff166397c3ec9e73931715fee2d06333043d11f658c8ce934ac61d0c73acc15dc74880c9944775448304b263d191c6077f73ffffffff1fcacbd218edc0eba20fc2308c77808073ffffffffa893ad19e540e172c10d78d4d479b5cf8760e001516040518663ffffffff1660e01b8152600401610f8095949392919061277f565b6020604051808303816000875af1158015610f9f573d6000803e3d6000fd5b505050506040513d601f19601f82011682018060405250810190610fc39190612648565b905073ffffffffa893ad19e540e172c10d78d4d479b5cf73ffffffffffffffffffffffffffffffffffffffff1663a9059cbb8360400151836040518363ffffffff1660e01b8152600401611018929190612675565b6020604051808303816000875af1158015611037573d6000803e3d6000fd5b505050506040513d601f19601f8201168201806040525081019061105b91906126d6565b50505b5b5b611a00565b73acc15dc74880c9944775448304b263d191c6077f73ffffffffffffffffffffffffffffffffffffffff16816060015173ffffffffffffffffffffffffffffffffffffffff16036113835773acc15dc74880c9944775448304b263d191c6077f73ffffffffffffffffffffffffffffffffffffffff166323b872dd8260400151308460e001516040518463ffffffff1660e01b815260040161110993929190612703565b6020604051808303816000875af1158015611128573d6000803e3d6000fd5b505050506040513d601f19601f8201168201806040525081019061114c91906126d6565b5073acc15dc74880c9944775448304b263d191c6077f73ffffffffffffffffffffffffffffffffffffffff1663095ea7b3600260009054906101000a900473ffffffffffffffffffffffffffffffffffffffff168360e001516040518363ffffffff1660e01b81526004016111c2929190612675565b6020604051808303816000875af11580156111e1573d6000803e3d6000fd5b505050506040513d601f19601f8201168201806040525081019061120591906126d6565b506000600360009054906101000a900473ffffffffffffffffffffffffffffffffffffffff1673ffffffffffffffffffffffffffffffffffffffff1663ceb9201273acc15dc74880c9944775448304b263d191c6077f73931715fee2d06333043d11f658c8ce934ac61d0c8560e001516040518463ffffffff1660e01b815260040161129393929190612703565b6020604051808303816000875af11580156112b2573d6000803e3d6000fd5b505050506040513d601f19601f820116820180604052508101906112d69190612648565b9050600460009054906101000a900473ffffffffffffffffffffffffffffffffffffffff1673ffffffffffffffffffffffffffffffffffffffff1663a9059cbb8360400151836040518363ffffffff1660e01b8152600401611339929190612675565b6020604051808303816000875af1158015611358573d6000803e3d6000fd5b505050506040513d601f19601f8201168201806040525081019061137c91906126d6565b50506119ff565b73ffffffff1fcacbd218edc0eba20fc2308c77808073ffffffffffffffffffffffffffffffffffffffff16816060015173ffffffffffffffffffffffffffffffffffffffff16036116b75773ffffffff1fcacbd218edc0eba20fc2308c77808073ffffffffffffffffffffffffffffffffffffffff166323b872dd8260400151308460e001516040518463ffffffff1660e01b815260040161142793929190612703565b6020604051808303816000875af1158015611446573d6000803e3d6000fd5b505050506040513d601f19601f8201168201806040525081019061146a91906126d6565b5073ffffffff1fcacbd218edc0eba20fc2308c77808073ffffffffffffffffffffffffffffffffffffffff1663095ea7b3600260009054906101000a900473ffffffffffffffffffffffffffffffffffffffff168360e001516040518363ffffffff1660e01b81526004016114e0929190612675565b6020604051808303816000875af11580156114ff573d6000803e3d6000fd5b505050506040513d601f19601f8201168201806040525081019061152391906126d6565b506000600360009054906101000a900473ffffffffffffffffffffffffffffffffffffffff1673ffffffffffffffffffffffffffffffffffffffff16630ac3789c73ffffffff1fcacbd218edc0eba20fc2308c77808073acc15dc74880c9944775448304b263d191c6077f73931715fee2d06333043d11f658c8ce934ac61d0c8660e001516040518563ffffffff1660e01b81526004016115c7949392919061273a565b6020604051808303816000875af11580156115e6573d6000803e3d6000fd5b505050506040513d601f19601f8201168201806040525081019061160a9190612648565b9050600460009054906101000a900473ffffffffffffffffffffffffffffffffffffffff1673ffffffffffffffffffffffffffffffffffffffff1663a9059cbb8360400151836040518363ffffffff1660e01b815260040161166d929190612675565b6020604051808303816000875af115801561168c573d6000803e3d6000fd5b505050506040513d601f19601f820116820180604052508101906116b091906126d6565b50506119fe565b73ffffffffa893ad19e540e172c10d78d4d479b5cf73ffffffffffffffffffffffffffffffffffffffff16816060015173ffffffffffffffffffffffffffffffffffffffff16036119fd5773ffffffffa893ad19e540e172c10d78d4d479b5cf73ffffffffffffffffffffffffffffffffffffffff166323b872dd8260400151308460e001516040518463ffffffff1660e01b815260040161175b93929190612703565b6020604051808303816000875af115801561177a573d6000803e3d6000fd5b505050506040513d601f19601f8201168201806040525081019061179e91906126d6565b5073ffffffffa893ad19e540e172c10d78d4d479b5cf73ffffffffffffffffffffffffffffffffffffffff1663095ea7b3600260009054906101000a900473ffffffffffffffffffffffffffffffffffffffff168360e001516040518363ffffffff1660e01b8152600401611814929190612675565b6020604051808303816000875af1158015611833573d6000803e3d6000fd5b505050506040513d601f19601f8201168201806040525081019061185791906126d6565b506000600360009054906101000a900473ffffffffffffffffffffffffffffffffffffffff1673ffffffffffffffffffffffffffffffffffffffff166397c3ec9e73ffffffffa893ad19e540e172c10d78d4d479b5cf73ffffffff1fcacbd218edc0eba20fc2308c77808073acc15dc74880c9944775448304b263d191c6077f73931715fee2d06333043d11f658c8ce934ac61d0c8760e001516040518663ffffffff1660e01b815260040161191195949392919061277f565b6020604051808303816000875af1158015611930573d6000803e3d6000fd5b505050506040513d601f19601f820116820180604052508101906119549190612648565b9050600460009054906101000a900473ffffffffffffffffffffffffffffffffffffffff1673ffffffffffffffffffffffffffffffffffffffff1663a9059cbb8360400151836040518363ffffffff1660e01b81526004016119b7929190612675565b6020604051808303816000875af11580156119d6573d6000803e3d6000fd5b505050506040513d601f19601f820116820180604052508101906119fa91906126d6565b50505b5b5b5b611a0d8160000151611e72565b5050565b600360009054906101000a900473ffffffffffffffffffffffffffffffffffffffff1681565b80600260006101000a81548173ffffffffffffffffffffffffffffffffffffffff021916908373ffffffffffffffffffffffffffffffffffffffff16021790555080600360006101000a81548173ffffffffffffffffffffffffffffffffffffffff021916908373ffffffffffffffffffffffffffffffffffffffff16021790555050565b60606006805480602002602001604051908101604052809291908181526020018280548015611b0a57602002820191906000526020600020905b815481526020019060010190808311611af6575b5050505050905090565b600460009054906101000a900473ffffffffffffffffffffffffffffffffffffffff1681565b60056020528060005260406000206000915090508060000154908060010154908060020160009054906101000a900473ffffffffffffffffffffffffffffffffffffffff16908060030160009054906101000a900473ffffffffffffffffffffffffffffffffffffffff16908060040160009054906101000a900473ffffffffffffffffffffffffffffffffffffffff169080600501549080600601549080600701549080600801549080600901549080600a015490508b565b73ffffffff1fcacbd218edc0eba20fc2308c77808081565b60068181548110611c1c57600080fd5b906000526020600020016000915090505481565b73acc15dc74880c9944775448304b263d191c6077f81565b60006001806000828254611c5c9190612801565b9250508190555060068054905090506006600154908060018154018082558091505060019003906000526020600020016000909190919091505560405180610160016040528060015481526020018b81526020018a73ffffffffffffffffffffffffffffffffffffffff1681526020018973ffffffffffffffffffffffffffffffffffffffff1681526020018873ffffffffffffffffffffffffffffffffffffffff16815260200187815260200186815260200185815260200184815260200183815260200182815250600560006001548152602001908152602001600020600082015181600001556020820151816001015560408201518160020160006101000a81548173ffffffffffffffffffffffffffffffffffffffff021916908373ffffffffffffffffffffffffffffffffffffffff16021790555060608201518160030160006101000a81548173ffffffffffffffffffffffffffffffffffffffff021916908373ffffffffffffffffffffffffffffffffffffffff16021790555060808201518160040160006101000a81548173ffffffffffffffffffffffffffffffffffffffff021916908373ffffffffffffffffffffffffffffffffffffffff16021790555060a0820151816005015560c0820151816006015560e082015181600701556101008201518160080155610120820151816009015561014082015181600a015590505050505050505050505050565b6000600560008381526020019081526020016000206040518061016001604052908160008201548152602001600182015481526020016002820160009054906101000a900473ffffffffffffffffffffffffffffffffffffffff1673ffffffffffffffffffffffffffffffffffffffff1673ffffffffffffffffffffffffffffffffffffffff1681526020016003820160009054906101000a900473ffffffffffffffffffffffffffffffffffffffff1673ffffffffffffffffffffffffffffffffffffffff1673ffffffffffffffffffffffffffffffffffffffff1681526020016004820160009054906101000a900473ffffffffffffffffffffffffffffffffffffffff1673ffffffffffffffffffffffffffffffffffffffff1673ffffffffffffffffffffffffffffffffffffffff1681526020016005820154815260200160068201548152602001600782015481526020016008820154815260200160098201548152602001600a82015481525050905060008161014001519050600060016006805490506120059190612835565b82101561206257600660016006805490506120209190612835565b8154811061203157612030612869565b5b90600052602060002001549050806006838154811061205357612052612869565b5b90600052602060002001819055505b600680548061207457612073612898565b5b60019003818190600052602060002001600090559055600081146120ae578160056000838152602001908152602001600020600a01819055505b6005600085815260200190815260200160002060008082016000905560018201600090556002820160006101000a81549073ffffffffffffffffffffffffffffffffffffffff02191690556003820160006101000a81549073ffffffffffffffffffffffffffffffffffffffff02191690556004820160006101000a81549073ffffffffffffffffffffffffffffffffffffffff021916905560058201600090556006820160009055600782016000905560088201600090556009820160009055600a820160009055505050505050565b600260009054906101000a900473ffffffffffffffffffffffffffffffffffffffff1681565b60008054906101000a900473ffffffffffffffffffffffffffffffffffffffff1681565b73931715fee2d06333043d11f658c8ce934ac61d0c81565b6000819050919050565b6121f4816121e1565b82525050565b600060208201905061220f60008301846121eb565b92915050565b600073ffffffffffffffffffffffffffffffffffffffff82169050919050565b600061224082612215565b9050919050565b61225081612235565b82525050565b600060208201905061226b6000830184612247565b92915050565b600080fd5b61227f816121e1565b811461228a57600080fd5b50565b60008135905061229c81612276565b92915050565b6000602082840312156122b8576122b7612271565b5b60006122c68482850161228d565b91505092915050565b6000819050919050565b60006122f46122ef6122ea84612215565b6122cf565b612215565b9050919050565b6000612306826122d9565b9050919050565b6000612318826122fb565b9050919050565b6123288161230d565b82525050565b6000602082019050612343600083018461231f565b92915050565b61235281612235565b811461235d57600080fd5b50565b60008135905061236f81612349565b92915050565b60006020828403121561238b5761238a612271565b5b600061239984828501612360565b91505092915050565b600081519050919050565b600082825260208201905092915050565b6000819050602082019050919050565b6123d7816121e1565b82525050565b60006123e983836123ce565b60208301905092915050565b6000602082019050919050565b600061240d826123a2565b61241781856123ad565b9350612422836123be565b8060005b8381101561245357815161243a88826123dd565b9750612445836123f5565b925050600181019050612426565b5085935050505092915050565b6000602082019050818103600083015261247a8184612402565b905092915050565b600061248d826122fb565b9050919050565b61249d81612482565b82525050565b60006020820190506124b86000830184612494565b92915050565b6000610160820190506124d4600083018e6121eb565b6124e1602083018d6121eb565b6124ee604083018c612247565b6124fb606083018b612247565b612508608083018a612247565b61251560a08301896121eb565b61252260c08301886121eb565b61252f60e08301876121eb565b61253d6101008301866121eb565b61254b6101208301856121eb565b6125596101408301846121eb565b9c9b505050505050505050505050565b60008060008060008060008060006101208a8c03121561258c5761258b612271565b5b600061259a8c828d0161228d565b99505060206125ab8c828d01612360565b98505060406125bc8c828d01612360565b97505060606125cd8c828d01612360565b96505060806125de8c828d0161228d565b95505060a06125ef8c828d0161228d565b94505060c06126008c828d0161228d565b93505060e06126118c828d0161228d565b9250506101006126238c828d0161228d565b9150509295985092959850929598565b60008151905061264281612276565b92915050565b60006020828403121561265e5761265d612271565b5b600061266c84828501612633565b91505092915050565b600060408201905061268a6000830185612247565b61269760208301846121eb565b9392505050565b60008115159050919050565b6126b38161269e565b81146126be57600080fd5b50565b6000815190506126d0816126aa565b92915050565b6000602082840312156126ec576126eb612271565b5b60006126fa848285016126c1565b91505092915050565b60006060820190506127186000830186612247565b6127256020830185612247565b61273260408301846121eb565b949350505050565b600060808201905061274f6000830187612247565b61275c6020830186612247565b6127696040830185612247565b61277660608301846121eb565b95945050505050565b600060a0820190506127946000830188612247565b6127a16020830187612247565b6127ae6040830186612247565b6127bb6060830185612247565b6127c860808301846121eb565b9695505050505050565b7f4e487b7100000000000000000000000000000000000000000000000000000000600052601160045260246000fd5b600061280c826121e1565b9150612817836121e1565b925082820190508082111561282f5761282e6127d2565b5b92915050565b6000612840826121e1565b915061284b836121e1565b9250828203905081811115612863576128626127d2565b5b92915050565b7f4e487b7100000000000000000000000000000000000000000000000000000000600052603260045260246000fd5b7f4e487b7100000000000000000000000000000000000000000000000000000000600052603160045260246000fdfea2646970667358221220315a7892ee1a47667b7d7a45b8eec282314449b67eb9709c2e57eebc50ecb35064736f6c63430008120033",
  "linkReferences": {},
  "deployedLinkReferences": {}
}